:020000040800F2
:1000000038070020CD010008D1010008D301000805
:10001000D5010008D7010008D90100080000000040
:10002000000000000000000000000000DB010008EC
:10003000DD01000800000000DF010008E101000808
:10004000E3010008E3010008E3010008E301000800
:10005000E3010008E301000875020008E30100085D
:10006000E3010008E3010008E3010008E3010008E0
:10007000E3010008E3010008E3010008E3010008D0
:10008000E3010008E3010008E3010008E3010008C0
:10009000E3010008E3010008E3010008F902000899
:1000A000E3010008E3010008E3010008E3010008A0
:1000B00015060008E3010008E3010008E301000859
:1000C000E3010008E3010008E3010008E301000880
:1000D000E3010008F5070008E3010008E301000858
:1000E000C5020008E3010008E3010008E30100087D
:1000F000E3010008E3010008E3010008E301000850
:10010000E3010008E3010008E3010008E30100083F
:10011000E3010008E3010008E3010008E30100082F
:10012000E3010008E3010008E3010008E30100081F
:1001300000F002F800F03AF80AA090E8000C8244BF
:100140008344AAF10107DA4501D100F02FF8AFF29C
:10015000090EBAE80F0013F0010F18BFFB1A43F0A5
:1001600001031847EC0E00000C0F0000103A24BFEA
:1001700078C878C1FAD8520724BF30C830C144BF0C
:1001800004680C607047000000230024002500264E
:10019000103A28BF78C1FBD8520728BF30C148BFEA
:1001A0000B6070471FB51FBD10B510BD00F034F8CF
:1001B0001146FFF7F7FF00F0D1FB00F052F803B44F
:1001C000FFF7F2FF03BC00F067FB000008480047A0
:1001D000FEE7FEE7FEE7FEE7FEE7FEE7FEE7FEE7F7
:1001E000FEE7FEE703480449044A054B7047000058
:1001F00031010008380100203807002038030020B2
:100200003803002070477047704770477047000000
:1002100000487047D80000207546FFF7F9FFAE464A
:1002200005006946534620F00700854618B020B502
:10023000FFF7D8FFBDE820404FF000064FF0000761
:100240004FF000084FF0000B21F00701AC46ACE87E
:10025000C009ACE8C009ACE8C009ACE8C0098D46EB
:10026000704710B50446AFF300802046BDE810404B
:10027000FFF7A5BF10B50A2000F044FB0D48006849
:10028000012812D10B48A030006808B9012000E015
:1002900000200849A03108600748D0F8880108B953
:1002A000012000E0002005490860012004490860A1
:1002B00010BD0000000121420080224288812242BC
:1002C0001404014010B50A2000F01CFB0748006828
:1002D00038B90748006808B9012000E00020044947
:1002E00008604FF400400349086010BD3C01214202
:1002F000888122421404014010B50A2000F002FB5C
:100300000748006838B90748006808B9012000E0CC
:1003100000200449086020200349086010BD000047
:1003200014012242A0012142140401400C488069BA
:1003300040F004000A4988610A48006820F00F0074
:10034000084908600846006840F008000860054851
:100350000C30006820F0010002490C310860704741
:1003600000100240000801401848806940F0040075
:10037000164988610846806940F020008861144869
:10038000006820F00F00124908600846006840F03D
:10039000030008600E480830006840F480700C4983
:1003A000083108600B48006820F470600949086053
:1003B0000846006840F44070086006480C30006849
:1003C00040F0040003490C310860704700100240FF
:1003D000040801400014014000B5002015490861DF
:1003E000C8601420486100208861C8610846006820
:1003F00040F001000860084640680F4908400D4978
:100400004860084600680D4908400A4908600846E7
:10041000006820F4802008600846406820F4FE0050
:1004200048600020886000214FF0006000F058F81C
:1004300000BD0000001002400000FFF8FFFFF6FEC4
:100440002DE9F0410746884614461D46284600F02F
:1004500033F8C5F1040007FA00F60F20284100EA3E
:100460000800064306F00F06E21704EBD2625211B1
:10047000920002F1E022D2F800212146E31704EBBA
:10048000D3635B11A4EB431C012303FA0CF31A435F
:100490002046E31704EBD3635B119B0003F1E023D9
:1004A000C3F800210348005D40EA061001490855E1
:1004B000BDE8F08100E400E00146072323EA0102E1
:1004C0001202054B18684FF6FF031840034B184300
:1004D0001043014B186070470CED00E00000FA0576
:1004E000024A0A400243024B1A60704780FFFF1F16
:1004F00008ED00E030B504460025FFF76DFF1F480A
:10050000006840F480301D49086000BF1B48006847
:10051000400C0028FAD04FF4806018494860A01EB3
:10052000C4B20846406840EA8440486008464068D3
:1005300040F4803048601248006840F032001049B2
:1005400008600E48006840F080700C49086000BFE9
:100550000A480068400E0028FAD00848406840F079
:1005600002000649486005E004484068C0F387057A
:1005700005F00305022DF7D130BD00000010024048
:100580000020024070B504460D462048C06940F086
:1005900001001E49C8610846806940F00400886176
:1005A0001B48006820F00F001949086008460068E1
:1005B00040F00400086016480C30006814490C3103
:1005C00008604FF0804084850585008B40F0010075
:1005D0004FF0804108830846008C40F001000884F9
:1005E0000846808940F0020088810846808940F0F2
:1005F000010088810846008840F00100088002233D
:100600001C2200211846FFF71BFF70BD001002409E
:10061000000801404FF08041088A2A49097801F01A
:100620008001002948D100F00101D1B125490978A4
:1006300001F04001A9B12349097801F03F013F29A8
:100640000AD12049097841F080011E4A11704FF605
:10065000FF711D4A118004E01A490978491C194AA2
:10066000117000F0020139B31649097801F0400118
:1006700099B11449097841F08001124A11704FF084
:100680008041898E104A11804FF08041098C21F001
:1006900002014FF0804211840EE000210A4A1180CD
:1006A0004021084A117000214FF080429184114688
:1006B000098C41F00201118400214FF08042118227
:1006C000704700000A0000200C000020214AD26977
:1006D00042F004021F4BDA611F4A126822F07F4287
:1006E0001D4B1A601A46126842F03B421A601B4AC0
:1006F0001080121F1180194A143A128842F06002C9
:10070000164B143B1A801A46128842F008021A80CF
:100710001A46128842F4C0421A801A46128842F4DD
:1007200000621A800D4A0C3A128842F001020B4B0B
:100730000C3B1A801A46128842F010021A8080225E
:10074000064B2C3B1A801A46128842F001021A808E
:100750007047000000100240000C01402C080040CF
:1007600010B50948006820B900214FF4FA7000F074
:10077000E7F805480830006820B900214FF4FA7006
:1007800000F008F910BD000034812142084880695A
:1007900040F00800064988610648006880B20549B3
:1007A0000860084600680449084302490860704729
:1007B00000100240040C0140000088880A4880694B
:1007C00040F01000084988610848406820F47060D3
:1007D000064948600846406840F440704860002080
:1007E00003490860704700000010024000100140FB
:1007F000A80122421D49098801F0200111B31B49BB
:10080000091D0988C8B21A49098801F40041C9B90B
:100810001749098801F4804161B10A2803D00021F9
:10082000134A118020E01249098841F40041104A1E
:10083000118019E00D2806D10D49098841F4804145
:100840000B4A118010E00A490988C1F30D01094AD9
:10085000505407490988491C054A118011460988E6
:10086000C72901DD002111807047000000380140D8
:10087000080000201000002010B5FFF79FFFFFF7D1
:1008800055FD47214FF6FF70FFF77CFE4FF41651E0
:10089000482000F0C7F810BD014600BF70470000B7
:1008A0000120064908600649C1F8A001002003495B
:1008B000091D08600249C1F8A4017047A8812142BE
:1008C000008021424FF0E021096921F004014FF03E
:1008D000E0221161C21700EB5272C2F3C702074B4C
:1008E0001A701946097801EB4102C2EBC1114FF6AB
:1008F000FF7202EAC101024A118070470000002025
:100900000200002001460D4A12884A434FF0E023BE
:100910005A6100229A6101221A6100BF4FF0E02261
:10092000106900F001021AB100F48032002AF5D0FB
:1009300000224FF0E0231A619A6170470200002004
:1009400000B503460A460020034908809818091D8F
:100950000880FFF7A5FF00BD340800404FF4165192
:10096000482000F05FF80920FFF7C4FD4820FFF79A
:10097000A9FFFFF7F9FC00F01DF8002140F2E73075
:10098000FFF7A4FEFFF702FFFFF776FF01E0FFF796
:10099000E7FEFCE700B503460A4603F16400104495
:1009A000034908800020091D0880FFF779FF00BD7A
:1009B000340800401748806940F0080015498861F4
:1009C0001548006820F07F4013490860081D006842
:1009D0006FF30F00091D0860081F006840F04C50BD
:1009E000091F0860081D006843F2333108430A49B3
:1009F000091D086001200949086000200849C1F864
:100A0000A401012005490831086000200449C1F80B
:100A1000AC01704700100240000C0140A08121424F
:100A2000008021422DE9F05F05460E46300100F0BE
:100A3000AFF98146304905FB01F000F0A9F9824683
:100A4000494600F0C3F80746384600F081F984B201
:100A5000204600F09DF98346394600F079FA824637
:100A60004FF0834100F0A8F9814600F071F980460B
:100A70004FF6FF7000EA041404EB080084B21F482C
:100A8000806940F004001D4988610846806940F48F
:100A9000804088611A48006820F47F601849086027
:100AA0000846006840F40B6008601448C06840F4D1
:100AB00080401249C8600846C06820F48040C86081
:100AC00010480480001D008842F20C0108430D49C3
:100AD000091D08800846008840F480700880084698
:100AE000008840F0200008800223252203210846C8
:100AF000FFF7A6FCBDE8F09F40420F000010024047
:100B0000040801400838014090EA010F48BF81F015
:100B1000004100F12E82421A3CBF801A89184FEA28
:100B2000D0524FF07F4C1CEA410FA2EBD15318BFBB
:100B30009CEA026F00F03B804FF0004C4CEA002032
:100B40004CEA012121FA03FC10EB0C0C1ED202F13D
:100B5000FF325FEA1C2040EBC25038BF70471CF0E8
:100B60007F0F4FEA400C18BFBCF17F4F38BF704772
:100B7000C3F12003994008BF20F00100BCF17F4F72
:100B800038BF7047A0F1C04000F0DDB94FEA3C002B
:100B9000000A40EBC25028BF1CF0FF0F4FEA400C88
:100BA000E6D018BFBCF17F4F38BF7047EAE79CEA38
:100BB000026F05D010EA5C0F08BF00F000407047DC
:100BC00010B500F07AF900BF64FBBE3E4FF47F0C15
:100BD0001CEAD0121EBF1CEAD11392EA0C0F93EA52
:100BE0000C0F00F0858090EA010F48BF42F480723C
:100BF00040F4000C41F400002CF07F4120F07F40D5
:100C000000B58142A2EB03020FF2081CACEB504E80
:100C1000C0F100009EF800E04FEA4E0E00FB0EFC13
:100C200038BF49004FEA2C1C02F5FA020CFB0EF308
:100C30004FEACE1E4FEA112C4FEAC1210EEB635E44
:100C400042EB22420EFB0CFC4FEA1C5300FB03114B
:100C50004FEA112C4FEA01310EFB0CFC4FEADC4C41
:100C600000FB0C11C14228BF09184CEB03335DF89F
:100C700004EB10EB410143EBC250B2F57C0F38BFDF
:100C8000704729D512F0F00F1CBF00F1C04000F0F2
:100C900000407047008182838485868788898B8C99
:100CA0008D8E8F919293959697999A9C9D9FA0A2D5
:100CB000A3A5A7A8AAACAEB0B2B3B5B7B9BCBEC025
:100CC000C2C5C7C9CCCED1D4D7D9DCDFE2E6E9ECC6
:100CD000F0F3F7FAFE0000004FEA400C0CF1807CC4
:100CE000BCF17E4F28BF7047B0F1C04000F02BB977
:100CF00090EA010F0CEAD11348BF42F480726245BA
:100D000038BF634507D213F47F0F16D080EA010085
:100D100000F00040704710B500F0CFF8097EFC3EAF
:100D200000F005B880EA010000F00040704780EA5A
:100D3000010000F0004000F006B912F47F0F04BF7C
:100D40000248704780EA010000F0FDB80000C07F53
:100D5000C10DD1F19E0206DB4FEA002343F00043B0
:100D600023FA02F07047004207D54FEA4001B1F183
:100D7000FE4F02D24FF00000704710B500F09DF812
:100D800049922480002070476FEA200070470000DD
:100D9000B0FA80F310FA03F2C3F19D030AD0D9052B
:100DA00001EB1220530638BF704700F1010008BF65
:100DB00020F00100704700004FF47F0C1CEAD012B5
:100DC0001EBF1CEAD11392EA0C0F93EA0C0F00F03D
:100DD000478090EA010F48BF42F480724FF0004C08
:100DE0004CEA00204CEA012102EB0302A0FB0113B4
:100DF000A2F50002002918BF43F001035B0028BFE1
:100E00004FEA330342EB22425FEA132C4CEBC25011
:100E10002EBFBCEB436FB2F57C0F70474FEA036CFB
:100E2000BCF1004F08BF20F00100B2F57C0F38BFC5
:100E300070470BD582F0FF0212F5803FC8BF7047A4
:100E400000F1C040D8BF00F00040704700F5000C32
:100E50005FEA4C0C48BF7047B0F1C04000F073B877
:100E600090EA010F0CEAD11348BF42F48072624548
:100E700038BF634504D280EA010000F000407047AB
:100E800010B500F01AF800BF8900013E00F007B865
:100E900000F009B85FEA410C5FEA1C6C08D080EAF8
:100EA000010000F050B85FEA400C5FEA1C6CF6D11C
:100EB0004FF00040A0F5800070470EF1020E2EF0BA
:100EC000030E5EF8044B244204D44FEA4102B2F10F
:100ED0007F4F11D84FEA4003B3F17F4F0CD80ED1AA
:100EE0004FEAD07CB2F17F4F0CEB4C0C0CF1020CB2
:100EF00008BF4CEBD17C04E04FF0080C01E04FEA56
:100F0000D17C0CEB4C0324FA03F404F00704B4F195
:100F1000040C06D20EEB840CBDE810404CF0010C22
:100F20006047DFE80CF0070802024FF00040A0F530
:100F3000800010BD0846420018BFD2F1807288BF01
:100F400000F0004010BDFF2141EAD050C0057047BD
:100F500080F0004090EA010F7FF5DDAD81F00041A7
:100F600000F007B890EA010F48BF81F000413FF55B
:100F7000D2AD421A04D882F00042A0EB0200114424
:100F80004FEAD0524FF07F4C1CEA410FA2EBD153F5
:100F900018BF9CEA026F4AD04FF0004C4CEA002088
:100FA0004CEA012121FA03FCB0EB0C0C0FD412F037
:100FB000FE0F36D05FEA4C001DD5001240EBC25048
:100FC00038BF70471CF03F0F18BF70470BE0A2F10D
:100FD00001025FEA1C2040EBC25038BF70471CF092
:100FE0007F0F18BF7047C3F12003994014BF401E04
:100FF00020F00100704780084FEA122308BF7047B5
:10100000B0FA80FCA2EB0C02CCF1280C60FA0CF0D8
:1010100093EA122F04BF00EBC25070474FEAC3702F
:101020007047130A5FEADC1008BF7047F6E79CEAD6
:10103000026F04D010EA5C0F08BF0020704710B5A3
:10104000FFF73BFF40DFF63E81F0004070470000B5
:101050007010000800000020100000006C01000863
:1010600080100008100000202807000088010008F8
:101070000000000000000000000000000000000070
:0400000508000131BD
:00000001FF
